{
  "_format": "hh-sol-artifact-1",
  "contractName": "CreatorTokenFactory",
  "sourceName": "contracts/CreatorTokenFactory.sol",
  "abi": [
    {
      "inputs": [],
      "stateMutability": "nonpayable",
      "type": "constructor"
    },
    {
      "inputs": [
        {
          "internalType": "address",
          "name": "owner",
          "type": "address"
        }
      ],
      "name": "OwnableInvalidOwner",
      "type": "error"
    },
    {
      "inputs": [
        {
          "internalType": "address",
          "name": "account",
          "type": "address"
        }
      ],
      "name": "OwnableUnauthorizedAccount",
      "type": "error"
    },
    {
      "anonymous": false,
      "inputs": [
        {
          "indexed": true,
          "internalType": "address",
          "name": "creator",
          "type": "address"
        },
        {
          "indexed": true,
          "internalType": "address",
          "name": "tokenAddress",
          "type": "address"
        },
        {
          "indexed": false,
          "internalType": "string",
          "name": "name",
          "type": "string"
        },
        {
          "indexed": false,
          "internalType": "string",
          "name": "symbol",
          "type": "string"
        }
      ],
      "name": "CreatorTokenDeployed",
      "type": "event"
    },
    {
      "anonymous": false,
      "inputs": [
        {
          "indexed": true,
          "internalType": "address",
          "name": "previousOwner",
          "type": "address"
        },
        {
          "indexed": true,
          "internalType": "address",
          "name": "newOwner",
          "type": "address"
        }
      ],
      "name": "OwnershipTransferred",
      "type": "event"
    },
    {
      "inputs": [
        {
          "internalType": "uint256",
          "name": "",
          "type": "uint256"
        }
      ],
      "name": "allTokens",
      "outputs": [
        {
          "internalType": "address",
          "name": "",
          "type": "address"
        }
      ],
      "stateMutability": "view",
      "type": "function"
    },
    {
      "inputs": [
        {
          "internalType": "address",
          "name": "",
          "type": "address"
        }
      ],
      "name": "creatorToToken",
      "outputs": [
        {
          "internalType": "address",
          "name": "",
          "type": "address"
        }
      ],
      "stateMutability": "view",
      "type": "function"
    },
    {
      "inputs": [
        {
          "internalType": "string",
          "name": "name",
          "type": "string"
        },
        {
          "internalType": "string",
          "name": "symbol",
          "type": "string"
        },
        {
          "internalType": "address",
          "name": "creator",
          "type": "address"
        }
      ],
      "name": "deployCreatorToken",
      "outputs": [
        {
          "internalType": "address",
          "name": "tokenAddress",
          "type": "address"
        }
      ],
      "stateMutability": "nonpayable",
      "type": "function"
    },
    {
      "inputs": [
        {
          "internalType": "address",
          "name": "creator",
          "type": "address"
        }
      ],
      "name": "getTokenForCreator",
      "outputs": [
        {
          "internalType": "address",
          "name": "",
          "type": "address"
        }
      ],
      "stateMutability": "view",
      "type": "function"
    },
    {
      "inputs": [],
      "name": "owner",
      "outputs": [
        {
          "internalType": "address",
          "name": "",
          "type": "address"
        }
      ],
      "stateMutability": "view",
      "type": "function"
    },
    {
      "inputs": [],
      "name": "renounceOwnership",
      "outputs": [],
      "stateMutability": "nonpayable",
      "type": "function"
    },
    {
      "inputs": [],
      "name": "totalTokens",
      "outputs": [
        {
          "internalType": "uint256",
          "name": "",
          "type": "uint256"
        }
      ],
      "stateMutability": "view",
      "type": "function"
    },
    {
      "inputs": [
        {
          "internalType": "address",
          "name": "newOwner",
          "type": "address"
        }
      ],
      "name": "transferOwnership",
      "outputs": [],
      "stateMutability": "nonpayable",
      "type": "function"
    }
  ],
  "bytecode": "0x608060405234801561001057600080fd5b50338061003757604051631e4fbdf760e01b81526000600482015260240160405180910390fd5b61004081610046565b50610096565b600080546001600160a01b038381166001600160a01b0319831681178455604051919092169283917f8be0079c531659141344cd1fd0a4f28419497f9722a3daafe3b4186f6b6457e09190a35050565b611732806100a56000396000f3fe60806040523480156200001157600080fd5b5060043610620000935760003560e01c80637e1c0c0911620000625780637e1c0c09146200011b5780638da5cb5b146200012d578063dd6ed644146200013f578063f2fde38b146200016e57600080fd5b806315a2466c146200009857806328b7949514620000e1578063634282af14620000f8578063715018a6146200010f575b600080fd5b620000c4620000a936600462000530565b6001602052600090815260409020546001600160a01b031681565b6040516001600160a01b0390911681526020015b60405180910390f35b620000c4620000f236600462000600565b62000185565b620000c4620001093660046200067d565b620003ff565b620001196200042a565b005b600254604051908152602001620000d8565b6000546001600160a01b0316620000c4565b620000c46200015036600462000530565b6001600160a01b039081166000908152600160205260409020541690565b620001196200017f36600462000530565b62000442565b60006200019162000486565b6001600160a01b038216620001ed5760405162461bcd60e51b815260206004820152601d60248201527f466163746f72793a207a65726f2063726561746f72206164647265737300000060448201526064015b60405180910390fd5b6001600160a01b038281166000908152600160205260409020541615620002635760405162461bcd60e51b8152602060048201526024808201527f466163746f72793a2063726561746f7220616c7265616479206861732061207460448201526337b5b2b760e11b6064820152608401620001e4565b6000845111620002b65760405162461bcd60e51b815260206004820152601960248201527f466163746f72793a20656d70747920746f6b656e206e616d65000000000000006044820152606401620001e4565b6000835111620003095760405162461bcd60e51b815260206004820152601b60248201527f466163746f72793a20656d70747920746f6b656e2073796d626f6c00000000006044820152606401620001e4565b60008484846040516200031c9062000505565b6200032a93929190620006df565b604051809103906000f08015801562000347573d6000803e3d6000fd5b506001600160a01b03808516600081815260016020819052604080832080549587166001600160a01b031996871681179091556002805493840181559093527f405787fa12a823e0f2b7631cc41b3ba8828b3321ca811111fa75cd3aa3bb5ace90910180549094168217909355915192945084935090917f09114a2b009af07e481114ecec52c710dec73dfa971647073ad3cddda08db83490620003ef908990899062000721565b60405180910390a3509392505050565b600281815481106200041057600080fd5b6000918252602090912001546001600160a01b0316905081565b6200043462000486565b620004406000620004b5565b565b6200044c62000486565b6001600160a01b0381166200047857604051631e4fbdf760e01b815260006004820152602401620001e4565b6200048381620004b5565b50565b6000546001600160a01b03163314620004405760405163118cdaa760e01b8152336004820152602401620001e4565b600080546001600160a01b038381166001600160a01b0319831681178455604051919092169283917f8be0079c531659141344cd1fd0a4f28419497f9722a3daafe3b4186f6b6457e09190a35050565b610fa9806200075483390190565b80356001600160a01b03811681146200052b57600080fd5b919050565b6000602082840312156200054357600080fd5b6200054e8262000513565b9392505050565b634e487b7160e01b600052604160045260246000fd5b600082601f8301126200057d57600080fd5b813567ffffffffffffffff808211156200059b576200059b62000555565b604051601f8301601f19908116603f01168101908282118183101715620005c657620005c662000555565b81604052838152866020858801011115620005e057600080fd5b836020870160208301376000602085830101528094505050505092915050565b6000806000606084860312156200061657600080fd5b833567ffffffffffffffff808211156200062f57600080fd5b6200063d878388016200056b565b945060208601359150808211156200065457600080fd5b5062000663868287016200056b565b925050620006746040850162000513565b90509250925092565b6000602082840312156200069057600080fd5b5035919050565b6000815180845260005b81811015620006bf57602081850181015186830182015201620006a1565b506000602082860101526020601f19601f83011685010191505092915050565b606081526000620006f4606083018662000697565b828103602084015262000708818662000697565b91505060018060a01b0383166040830152949350505050565b60408152600062000736604083018562000697565b82810360208401526200074a818562000697565b9594505050505056fe60a06040523480156200001157600080fd5b5060405162000fa938038062000fa9833981016040819052620000349162000347565b808383600362000045838262000463565b50600462000054828262000463565b5050506001600160a01b0381166200008757604051631e4fbdf760e01b8152600060048201526024015b60405180910390fd5b6200009281620000bf565b506001600160a01b038116608052620000b68169d3c21bcecceda100000062000111565b50505062000557565b600580546001600160a01b038381166001600160a01b0319831681179093556040519116919082907f8be0079c531659141344cd1fd0a4f28419497f9722a3daafe3b4186f6b6457e090600090a35050565b6001600160a01b0382166200013d5760405163ec442f0560e01b8152600060048201526024016200007e565b6200014b600083836200014f565b5050565b6001600160a01b0383166200017e5780600260008282546200017291906200052f565b90915550620001f29050565b6001600160a01b03831660009081526020819052604090205481811015620001d35760405163391434e360e21b81526001600160a01b038516600482015260248101829052604481018390526064016200007e565b6001600160a01b03841660009081526020819052604090209082900390555b6001600160a01b03821662000210576002805482900390556200022f565b6001600160a01b03821660009081526020819052604090208054820190555b816001600160a01b0316836001600160a01b03167fddf252ad1be2c89b69c2b068fc378daa952ba7f163c4a11628f55a4df523b3ef836040516200027591815260200190565b60405180910390a3505050565b634e487b7160e01b600052604160045260246000fd5b600082601f830112620002aa57600080fd5b81516001600160401b0380821115620002c757620002c762000282565b604051601f8301601f19908116603f01168101908282118183101715620002f257620002f262000282565b816040528381526020925086838588010111156200030f57600080fd5b600091505b8382101562000333578582018301518183018401529082019062000314565b600093810190920192909252949350505050565b6000806000606084860312156200035d57600080fd5b83516001600160401b03808211156200037557600080fd5b620003838783880162000298565b945060208601519150808211156200039a57600080fd5b50620003a98682870162000298565b604086015190935090506001600160a01b0381168114620003c957600080fd5b809150509250925092565b600181811c90821680620003e957607f821691505b6020821081036200040a57634e487b7160e01b600052602260045260246000fd5b50919050565b601f8211156200045e57600081815260208120601f850160051c81016020861015620004395750805b601f850160051c820191505b818110156200045a5782815560010162000445565b5050505b505050565b81516001600160401b038111156200047f576200047f62000282565b6200049781620004908454620003d4565b8462000410565b602080601f831160018114620004cf5760008415620004b65750858301515b600019600386901b1c1916600185901b1785556200045a565b600085815260208120601f198616915b828110156200050057888601518255948401946001909101908401620004df565b50858210156200051f5787850151600019600388901b60f8161c191681555b5050505050600190811b01905550565b808201808211156200055157634e487b7160e01b600052601160045260246000fd5b92915050565b608051610a3662000573600039600061010a0152610a366000f3fe608060405234801561001057600080fd5b50600436106101005760003560e01c806340c10f191161009757806395d89b411161006657806395d89b4114610226578063a9059cbb1461022e578063dd62ed3e14610241578063f2fde38b1461027a57600080fd5b806340c10f19146101cf57806370a08231146101e4578063715018a61461020d5780638da5cb5b1461021557600080fd5b806323b872dd116100d357806323b872dd14610193578063313ce567146101a657806332cb6b0c146101b5578063349f0b90146101c757600080fd5b806302d05d3f1461010557806306fdde0314610149578063095ea7b31461015e57806318160ddd14610181575b600080fd5b61012c7f000000000000000000000000000000000000000000000000000000000000000081565b6040516001600160a01b0390911681526020015b60405180910390f35b61015161028d565b6040516101409190610865565b61017161016c3660046108cf565b61031f565b6040519015158152602001610140565b6002545b604051908152602001610140565b6101716101a13660046108f9565b610339565b60405160128152602001610140565b6101856a084595161401484a00000081565b61018561035d565b6101e26101dd3660046108cf565b610382565b005b6101856101f2366004610935565b6001600160a01b031660009081526020819052604090205490565b6101e261044e565b6005546001600160a01b031661012c565b610151610462565b61017161023c3660046108cf565b610471565b61018561024f366004610957565b6001600160a01b03918216600090815260016020908152604080832093909416825291909152205490565b6101e2610288366004610935565b61047f565b60606003805461029c9061098a565b80601f01602080910402602001604051908101604052809291908181526020018280546102c89061098a565b80156103155780601f106102ea57610100808354040283529160200191610315565b820191906000526020600020905b8154815290600101906020018083116102f857829003601f168201915b5050505050905090565b60003361032d8185856104bd565b60019150505b92915050565b6000336103478582856104cf565b61035285858561054e565b506001949350505050565b600061036860025490565b61037d906a084595161401484a0000006109da565b905090565b61038a6105ad565b6a084595161401484a000000816103a060025490565b6103aa91906109ed565b11156103fd5760405162461bcd60e51b815260206004820181905260248201527f43726561746f72546f6b656e3a2065786365656473206d617820737570706c7960448201526064015b60405180910390fd5b61040782826105da565b816001600160a01b03167f3f2c9d57c068687834f0de942a9babb9e5acab57d516d3480a3c16ee165a42738260405161044291815260200190565b60405180910390a25050565b6104566105ad565b6104606000610614565b565b60606004805461029c9061098a565b60003361032d81858561054e565b6104876105ad565b6001600160a01b0381166104b157604051631e4fbdf760e01b8152600060048201526024016103f4565b6104ba81610614565b50565b6104ca8383836001610666565b505050565b6001600160a01b03838116600090815260016020908152604080832093861683529290522054600019811015610548578181101561053957604051637dc7a0d960e11b81526001600160a01b038416600482015260248101829052604481018390526064016103f4565b61054884848484036000610666565b50505050565b6001600160a01b03831661057857604051634b637e8f60e11b8152600060048201526024016103f4565b6001600160a01b0382166105a25760405163ec442f0560e01b8152600060048201526024016103f4565b6104ca83838361073b565b6005546001600160a01b031633146104605760405163118cdaa760e01b81523360048201526024016103f4565b6001600160a01b0382166106045760405163ec442f0560e01b8152600060048201526024016103f4565b6106106000838361073b565b5050565b600580546001600160a01b038381166001600160a01b0319831681179093556040519116919082907f8be0079c531659141344cd1fd0a4f28419497f9722a3daafe3b4186f6b6457e090600090a35050565b6001600160a01b0384166106905760405163e602df0560e01b8152600060048201526024016103f4565b6001600160a01b0383166106ba57604051634a1406b160e11b8152600060048201526024016103f4565b6001600160a01b038085166000908152600160209081526040808320938716835292905220829055801561054857826001600160a01b0316846001600160a01b03167f8c5be1e5ebec7d5bd14f71427d1e84f3dd0314c0f7b2291e5b200ac8c7c3b9258460405161072d91815260200190565b60405180910390a350505050565b6001600160a01b03831661076657806002600082825461075b91906109ed565b909155506107d89050565b6001600160a01b038316600090815260208190526040902054818110156107b95760405163391434e360e21b81526001600160a01b038516600482015260248101829052604481018390526064016103f4565b6001600160a01b03841660009081526020819052604090209082900390555b6001600160a01b0382166107f457600280548290039055610813565b6001600160a01b03821660009081526020819052604090208054820190555b816001600160a01b0316836001600160a01b03167fddf252ad1be2c89b69c2b068fc378daa952ba7f163c4a11628f55a4df523b3ef8360405161085891815260200190565b60405180910390a3505050565b600060208083528351808285015260005b8181101561089257858101830151858201604001528201610876565b506000604082860101526040601f19601f8301168501019250505092915050565b80356001600160a01b03811681146108ca57600080fd5b919050565b600080604083850312156108e257600080fd5b6108eb836108b3565b946020939093013593505050565b60008060006060848603121561090e57600080fd5b610917846108b3565b9250610925602085016108b3565b9150604084013590509250925092565b60006020828403121561094757600080fd5b610950826108b3565b9392505050565b6000806040838503121561096a57600080fd5b610973836108b3565b9150610981602084016108b3565b90509250929050565b600181811c9082168061099e57607f821691505b6020821081036109be57634e487b7160e01b600052602260045260246000fd5b50919050565b634e487b7160e01b600052601160045260246000fd5b81810381811115610333576103336109c4565b80820180821115610333576103336109c456fea2646970667358221220a9ae9a37778fcfca17a482de1dc2724ace0995858b912a0bc27d9cd94b2b893c64736f6c63430008140033a2646970667358221220ac44ba11c438ec42923029e88b433e7bbabc6d75f7769fd4c9caac1511c6a89364736f6c63430008140033",
  "linkReferences": {},
  "deployedLinkReferences": {}
}