{
  "_format": "hh-sol-artifact-1",
  "contractName": "FLCToken",
  "sourceName": "contracts/FLCToken.sol",
  "abi": [
    {
      "inputs": [
        {
          "internalType": "address",
          "name": "initialOwner",
          "type": "address"
        }
      ],
      "stateMutability": "nonpayable",
      "type": "constructor"
    },
    {
      "inputs": [
        {
          "internalType": "address",
          "name": "spender",
          "type": "address"
        },
        {
          "internalType": "uint256",
          "name": "allowance",
          "type": "uint256"
        },
        {
          "internalType": "uint256",
          "name": "needed",
          "type": "uint256"
        }
      ],
      "name": "ERC20InsufficientAllowance",
      "type": "error"
    },
    {
      "inputs": [
        {
          "internalType": "address",
          "name": "sender",
          "type": "address"
        },
        {
          "internalType": "uint256",
          "name": "balance",
          "type": "uint256"
        },
        {
          "internalType": "uint256",
          "name": "needed",
          "type": "uint256"
        }
      ],
      "name": "ERC20InsufficientBalance",
      "type": "error"
    },
    {
      "inputs": [
        {
          "internalType": "address",
          "name": "approver",
          "type": "address"
        }
      ],
      "name": "ERC20InvalidApprover",
      "type": "error"
    },
    {
      "inputs": [
        {
          "internalType": "address",
          "name": "receiver",
          "type": "address"
        }
      ],
      "name": "ERC20InvalidReceiver",
      "type": "error"
    },
    {
      "inputs": [
        {
          "internalType": "address",
          "name": "sender",
          "type": "address"
        }
      ],
      "name": "ERC20InvalidSender",
      "type": "error"
    },
    {
      "inputs": [
        {
          "internalType": "address",
          "name": "spender",
          "type": "address"
        }
      ],
      "name": "ERC20InvalidSpender",
      "type": "error"
    },
    {
      "inputs": [
        {
          "internalType": "address",
          "name": "owner",
          "type": "address"
        }
      ],
      "name": "OwnableInvalidOwner",
      "type": "error"
    },
    {
      "inputs": [
        {
          "internalType": "address",
          "name": "account",
          "type": "address"
        }
      ],
      "name": "OwnableUnauthorizedAccount",
      "type": "error"
    },
    {
      "anonymous": false,
      "inputs": [
        {
          "indexed": true,
          "internalType": "address",
          "name": "owner",
          "type": "address"
        },
        {
          "indexed": true,
          "internalType": "address",
          "name": "spender",
          "type": "address"
        },
        {
          "indexed": false,
          "internalType": "uint256",
          "name": "value",
          "type": "uint256"
        }
      ],
      "name": "Approval",
      "type": "event"
    },
    {
      "anonymous": false,
      "inputs": [
        {
          "indexed": true,
          "internalType": "address",
          "name": "previousOwner",
          "type": "address"
        },
        {
          "indexed": true,
          "internalType": "address",
          "name": "newOwner",
          "type": "address"
        }
      ],
      "name": "OwnershipTransferred",
      "type": "event"
    },
    {
      "anonymous": false,
      "inputs": [
        {
          "indexed": true,
          "internalType": "address",
          "name": "to",
          "type": "address"
        },
        {
          "indexed": false,
          "internalType": "uint256",
          "name": "amount",
          "type": "uint256"
        }
      ],
      "name": "TokensMinted",
      "type": "event"
    },
    {
      "anonymous": false,
      "inputs": [
        {
          "indexed": true,
          "internalType": "address",
          "name": "from",
          "type": "address"
        },
        {
          "indexed": true,
          "internalType": "address",
          "name": "to",
          "type": "address"
        },
        {
          "indexed": false,
          "internalType": "uint256",
          "name": "value",
          "type": "uint256"
        }
      ],
      "name": "Transfer",
      "type": "event"
    },
    {
      "inputs": [],
      "name": "MAX_SUPPLY",
      "outputs": [
        {
          "internalType": "uint256",
          "name": "",
          "type": "uint256"
        }
      ],
      "stateMutability": "view",
      "type": "function"
    },
    {
      "inputs": [
        {
          "internalType": "address",
          "name": "owner",
          "type": "address"
        },
        {
          "internalType": "address",
          "name": "spender",
          "type": "address"
        }
      ],
      "name": "allowance",
      "outputs": [
        {
          "internalType": "uint256",
          "name": "",
          "type": "uint256"
        }
      ],
      "stateMutability": "view",
      "type": "function"
    },
    {
      "inputs": [
        {
          "internalType": "address",
          "name": "spender",
          "type": "address"
        },
        {
          "internalType": "uint256",
          "name": "value",
          "type": "uint256"
        }
      ],
      "name": "approve",
      "outputs": [
        {
          "internalType": "bool",
          "name": "",
          "type": "bool"
        }
      ],
      "stateMutability": "nonpayable",
      "type": "function"
    },
    {
      "inputs": [
        {
          "internalType": "address",
          "name": "account",
          "type": "address"
        }
      ],
      "name": "balanceOf",
      "outputs": [
        {
          "internalType": "uint256",
          "name": "",
          "type": "uint256"
        }
      ],
      "stateMutability": "view",
      "type": "function"
    },
    {
      "inputs": [
        {
          "internalType": "uint256",
          "name": "value",
          "type": "uint256"
        }
      ],
      "name": "burn",
      "outputs": [],
      "stateMutability": "nonpayable",
      "type": "function"
    },
    {
      "inputs": [
        {
          "internalType": "address",
          "name": "account",
          "type": "address"
        },
        {
          "internalType": "uint256",
          "name": "value",
          "type": "uint256"
        }
      ],
      "name": "burnFrom",
      "outputs": [],
      "stateMutability": "nonpayable",
      "type": "function"
    },
    {
      "inputs": [],
      "name": "decimals",
      "outputs": [
        {
          "internalType": "uint8",
          "name": "",
          "type": "uint8"
        }
      ],
      "stateMutability": "view",
      "type": "function"
    },
    {
      "inputs": [
        {
          "internalType": "address",
          "name": "to",
          "type": "address"
        },
        {
          "internalType": "uint256",
          "name": "amount",
          "type": "uint256"
        }
      ],
      "name": "mint",
      "outputs": [],
      "stateMutability": "nonpayable",
      "type": "function"
    },
    {
      "inputs": [],
      "name": "name",
      "outputs": [
        {
          "internalType": "string",
          "name": "",
          "type": "string"
        }
      ],
      "stateMutability": "view",
      "type": "function"
    },
    {
      "inputs": [],
      "name": "owner",
      "outputs": [
        {
          "internalType": "address",
          "name": "",
          "type": "address"
        }
      ],
      "stateMutability": "view",
      "type": "function"
    },
    {
      "inputs": [],
      "name": "remainingMintableSupply",
      "outputs": [
        {
          "internalType": "uint256",
          "name": "",
          "type": "uint256"
        }
      ],
      "stateMutability": "view",
      "type": "function"
    },
    {
      "inputs": [],
      "name": "renounceOwnership",
      "outputs": [],
      "stateMutability": "nonpayable",
      "type": "function"
    },
    {
      "inputs": [],
      "name": "symbol",
      "outputs": [
        {
          "internalType": "string",
          "name": "",
          "type": "string"
        }
      ],
      "stateMutability": "view",
      "type": "function"
    },
    {
      "inputs": [],
      "name": "totalSupply",
      "outputs": [
        {
          "internalType": "uint256",
          "name": "",
          "type": "uint256"
        }
      ],
      "stateMutability": "view",
      "type": "function"
    },
    {
      "inputs": [
        {
          "internalType": "address",
          "name": "to",
          "type": "address"
        },
        {
          "internalType": "uint256",
          "name": "value",
          "type": "uint256"
        }
      ],
      "name": "transfer",
      "outputs": [
        {
          "internalType": "bool",
          "name": "",
          "type": "bool"
        }
      ],
      "stateMutability": "nonpayable",
      "type": "function"
    },
    {
      "inputs": [
        {
          "internalType": "address",
          "name": "from",
          "type": "address"
        },
        {
          "internalType": "address",
          "name": "to",
          "type": "address"
        },
        {
          "internalType": "uint256",
          "name": "value",
          "type": "uint256"
        }
      ],
      "name": "transferFrom",
      "outputs": [
        {
          "internalType": "bool",
          "name": "",
          "type": "bool"
        }
      ],
      "stateMutability": "nonpayable",
      "type": "function"
    },
    {
      "inputs": [
        {
          "internalType": "address",
          "name": "newOwner",
          "type": "address"
        }
      ],
      "name": "transferOwnership",
      "outputs": [],
      "stateMutability": "nonpayable",
      "type": "function"
    }
  ],
  "bytecode": "0x60806040523480156200001157600080fd5b5060405162000f3638038062000f368339810160408190526200003491620002b4565b806040518060400160405280600a815260200169233630b9329021b7b4b760b11b81525060405180604001604052806003815260200162464c4360e81b81525081600390816200008591906200038b565b5060046200009482826200038b565b5050506001600160a01b038116620000c757604051631e4fbdf760e01b8152600060048201526024015b60405180910390fd5b620000d281620000f1565b50620000ea816a52b7d2dcc80cd2e400000062000143565b506200047f565b600580546001600160a01b038381166001600160a01b0319831681179093556040519116919082907f8be0079c531659141344cd1fd0a4f28419497f9722a3daafe3b4186f6b6457e090600090a35050565b6001600160a01b0382166200016f5760405163ec442f0560e01b815260006004820152602401620000be565b6200017d6000838362000181565b5050565b6001600160a01b038316620001b0578060026000828254620001a4919062000457565b90915550620002249050565b6001600160a01b03831660009081526020819052604090205481811015620002055760405163391434e360e21b81526001600160a01b03851660048201526024810182905260448101839052606401620000be565b6001600160a01b03841660009081526020819052604090209082900390555b6001600160a01b038216620002425760028054829003905562000261565b6001600160a01b03821660009081526020819052604090208054820190555b816001600160a01b0316836001600160a01b03167fddf252ad1be2c89b69c2b068fc378daa952ba7f163c4a11628f55a4df523b3ef83604051620002a791815260200190565b60405180910390a3505050565b600060208284031215620002c757600080fd5b81516001600160a01b0381168114620002df57600080fd5b9392505050565b634e487b7160e01b600052604160045260246000fd5b600181811c908216806200031157607f821691505b6020821081036200033257634e487b7160e01b600052602260045260246000fd5b50919050565b601f8211156200038657600081815260208120601f850160051c81016020861015620003615750805b601f850160051c820191505b8181101562000382578281556001016200036d565b5050505b505050565b81516001600160401b03811115620003a757620003a7620002e6565b620003bf81620003b88454620002fc565b8462000338565b602080601f831160018114620003f75760008415620003de5750858301515b600019600386901b1c1916600185901b17855562000382565b600085815260208120601f198616915b82811015620004285788860151825594840194600190910190840162000407565b5085821015620004475787850151600019600388901b60f8161c191681555b5050505050600190811b01905550565b808201808211156200047957634e487b7160e01b600052601160045260246000fd5b92915050565b610aa7806200048f6000396000f3fe608060405234801561001057600080fd5b506004361061010b5760003560e01c806342966c68116100a25780638da5cb5b116100715780638da5cb5b1461020c57806395d89b4114610227578063a9059cbb1461022f578063dd62ed3e14610242578063f2fde38b1461027b57600080fd5b806342966c68146101b557806370a08231146101c8578063715018a6146101f157806379cc6790146101f957600080fd5b8063313ce567116100de578063313ce5671461017657806332cb6b0c14610185578063349f0b901461019857806340c10f19146101a057600080fd5b806306fdde0314610110578063095ea7b31461012e57806318160ddd1461015157806323b872dd14610163575b600080fd5b61011861028e565b60405161012591906108bd565b60405180910390f35b61014161013c366004610927565b610320565b6040519015158152602001610125565b6002545b604051908152602001610125565b610141610171366004610951565b61033a565b60405160128152602001610125565b6101556b033b2e3c9fd0803ce800000081565b61015561035e565b6101b36101ae366004610927565b610384565b005b6101b36101c336600461098d565b610451565b6101556101d63660046109a6565b6001600160a01b031660009081526020819052604090205490565b6101b361045e565b6101b3610207366004610927565b610472565b6005546040516001600160a01b039091168152602001610125565b61011861048b565b61014161023d366004610927565b61049a565b6101556102503660046109c8565b6001600160a01b03918216600090815260016020908152604080832093909416825291909152205490565b6101b36102893660046109a6565b6104a8565b60606003805461029d906109fb565b80601f01602080910402602001604051908101604052809291908181526020018280546102c9906109fb565b80156103165780601f106102eb57610100808354040283529160200191610316565b820191906000526020600020905b8154815290600101906020018083116102f957829003601f168201915b5050505050905090565b60003361032e8185856104e3565b60019150505b92915050565b6000336103488582856104f5565b610353858585610574565b506001949350505050565b600061036960025490565b61037f906b033b2e3c9fd0803ce8000000610a4b565b905090565b61038c6105d3565b6b033b2e3c9fd0803ce8000000816103a360025490565b6103ad9190610a5e565b11156104005760405162461bcd60e51b815260206004820152601760248201527f464c433a2065786365656473206d617820737570706c7900000000000000000060448201526064015b60405180910390fd5b61040a8282610600565b816001600160a01b03167f3f2c9d57c068687834f0de942a9babb9e5acab57d516d3480a3c16ee165a42738260405161044591815260200190565b60405180910390a25050565b61045b3382610636565b50565b6104666105d3565b610470600061066c565b565b61047d8233836104f5565b6104878282610636565b5050565b60606004805461029d906109fb565b60003361032e818585610574565b6104b06105d3565b6001600160a01b0381166104da57604051631e4fbdf760e01b8152600060048201526024016103f7565b61045b8161066c565b6104f083838360016106be565b505050565b6001600160a01b0383811660009081526001602090815260408083209386168352929052205460001981101561056e578181101561055f57604051637dc7a0d960e11b81526001600160a01b038416600482015260248101829052604481018390526064016103f7565b61056e848484840360006106be565b50505050565b6001600160a01b03831661059e57604051634b637e8f60e11b8152600060048201526024016103f7565b6001600160a01b0382166105c85760405163ec442f0560e01b8152600060048201526024016103f7565b6104f0838383610793565b6005546001600160a01b031633146104705760405163118cdaa760e01b81523360048201526024016103f7565b6001600160a01b03821661062a5760405163ec442f0560e01b8152600060048201526024016103f7565b61048760008383610793565b6001600160a01b03821661066057604051634b637e8f60e11b8152600060048201526024016103f7565b61048782600083610793565b600580546001600160a01b038381166001600160a01b0319831681179093556040519116919082907f8be0079c531659141344cd1fd0a4f28419497f9722a3daafe3b4186f6b6457e090600090a35050565b6001600160a01b0384166106e85760405163e602df0560e01b8152600060048201526024016103f7565b6001600160a01b03831661071257604051634a1406b160e11b8152600060048201526024016103f7565b6001600160a01b038085166000908152600160209081526040808320938716835292905220829055801561056e57826001600160a01b0316846001600160a01b03167f8c5be1e5ebec7d5bd14f71427d1e84f3dd0314c0f7b2291e5b200ac8c7c3b9258460405161078591815260200190565b60405180910390a350505050565b6001600160a01b0383166107be5780600260008282546107b39190610a5e565b909155506108309050565b6001600160a01b038316600090815260208190526040902054818110156108115760405163391434e360e21b81526001600160a01b038516600482015260248101829052604481018390526064016103f7565b6001600160a01b03841660009081526020819052604090209082900390555b6001600160a01b03821661084c5760028054829003905561086b565b6001600160a01b03821660009081526020819052604090208054820190555b816001600160a01b0316836001600160a01b03167fddf252ad1be2c89b69c2b068fc378daa952ba7f163c4a11628f55a4df523b3ef836040516108b091815260200190565b60405180910390a3505050565b600060208083528351808285015260005b818110156108ea578581018301518582016040015282016108ce565b506000604082860101526040601f19601f8301168501019250505092915050565b80356001600160a01b038116811461092257600080fd5b919050565b6000806040838503121561093a57600080fd5b6109438361090b565b946020939093013593505050565b60008060006060848603121561096657600080fd5b61096f8461090b565b925061097d6020850161090b565b9150604084013590509250925092565b60006020828403121561099f57600080fd5b5035919050565b6000602082840312156109b857600080fd5b6109c18261090b565b9392505050565b600080604083850312156109db57600080fd5b6109e48361090b565b91506109f26020840161090b565b90509250929050565b600181811c90821680610a0f57607f821691505b602082108103610a2f57634e487b7160e01b600052602260045260246000fd5b50919050565b634e487b7160e01b600052601160045260246000fd5b8181038181111561033457610334610a35565b8082018082111561033457610334610a3556fea2646970667358221220a9fc681b96eaab557f669668016c6e8533cbe401e46fcea4c5b1eaba48243d4264736f6c63430008140033",
  "linkReferences": {},
  "deployedLinkReferences": {}
}